:020000040800F2
:1000000000000110116103080B9D02081510020881
:10001000CD610308CD610308CD6103080000000035
:10002000000000000000000000000000099D020820
:10003000079D020800000000059D02086BD1020820
:10004000CD610308CD610308CD610308CD610308CC
:10005000CD610308CD61030877D502087FD502087A
:10006000CD6103087DD502087BD50208D1BE020808
:10007000BDBE0208A9BE020895BE020881BE0208E4
:100080006DBE020859BE0208CD610308CD610308A8
:10009000CD610308CD610308CD61030879D502085D
:1000A00011C00208E9BF0208C1BF020839C0020836
:1000B000ADBF020899BF020885BF0208CD610308E1
:1000C000CD610308CD610308CD610308CD6103084C
:1000D000CD61030835830008298300081D830008CB
:1000E00075D50208CD610308F9C2020835BF0208C0
:1000F0000DBF0208E5BE02085DBF020845BE02084A
:10010000CD610308CD61030871BF0208CD6103080A
:100110001183000805830008CD610308CD61030841
:1001200031BE02081DBE020809BE0208F5BD020864
:10013000E1BD0208CD610308CD610308CD6103086C
:10014000CD610308CD610308CD61030877970208EC
:10015000CDBD0208B9BD0208A5BD0208F98200089C
:10016000CD610308CD610308CD610308CD610308AB
:10017000CD610308CD610308CD610308CD6103089B
:08018000CD610308CD61030805
:10018800034B1A780AB901221A700020704700BF81
:1001980000000020064B5A784AB19B783BB103EB2C
:1001A800C203093B034A32F81320034B1A807047F5
:1001B8000000002034BE0308801C002008B5054B51
:1001C8009A781AB901229A70002008BDFFF7E2FF59
:1001D800FAE700BF0000002008B5054B5A781AB9A5
:1001E80001225A70002008BDFFF7D4FFFAE700BFCC
:1001F80000000020034BDA780AB90122DA700020E7
:10020800704700BF00000020064B1A794AB15B799D
:100218003BB103EBC203093B034A32F81320034BFB
:100228005A807047000000205EBE0308801C002032
:1002380008B515494B780BB1144A13718B780BB17B
:10024800124A5371FFF7E0FF0B7B114A0133137118
:100258000B897BB1192B0FD9642B0FD9C82B0FD958
:10026800B3F5C87F0ED9B3F5167F03D80423074A20
:100278000133D370002008BD0023F8E70123F6E717
:100288000223F4E70323F2E7FA2800200000002005
:10029800801C002008B5054B5A791AB901225A71F9
:1002A800002008BDFFF7B0FFFAE700BF00000020FC
:1002B80008B5054B1A791AB901221A71002008BD30
:1002C800FFF7A2FFFAE700BF00000020064B1A78EC
:1002D800064B1B7803EBC203093B054A32F813208F
:1002E800044B1A80704700BF6A2B00206B2B00203C
:1002F8005EBE03086C2B0020074B5A79074B42B1AE
:10030800074A12781AB9074A5A6100207047064A04
:10031800FAE7064AF8E700BF801C0020000000202A
:10032800722B00208C8F030854900308F490030864
:10033800034BDA88034B4FF0FF301A80704700BF39
:10034800801C0020702B0020024B1A88024B0020D2
:10035800DA807047702B0020801C0020064B93F930
:100368000030012B1FBF054B5A891A81002008BF96
:100378004FF0FF30704700BF20010020801C002094
:1003880008B5074B1A782AB1064A1278012A1CBF09
:1003980000221A700020FFF7AFFF002008BD00BF41
:1003A800722B0020682B0020064B93F90020064B87
:1003B80012B91A70002070471A78002AFAD101225F
:1003C800F7E700BF200100206E2B0020084BC31A5E
:1003D80008489B1058430138074B03289861A8BF69
:1003E800032040EAE070D861044B0020D8607047D1
:1003F80058910308CDCCCCCC00000020801C0020F4
:100408000E4983688A69592000FB02320C4810B5EE
:1004180030F812200B620B48023BDBB202F01F04DB
:100428000474022BC2F34414C2F3C02244748274CD
:1004380094BF054B054B0B63002010BD0000002046
:10044800247D0020801C0020E491030834920308D6
:1004580028B10079023818BF4FF0FF3070474FF0CD
:10046800FF307047054B064A1B78591CD174054A62
:10047800313382F835300020704700BFD046002065
:10048800801C00200000002010B5084808490023FF
:100498001A5CA2F16104052C98BF203ACA540133B2
:1004A800082BF5D1034B0020187710BD34F2030850
:1004B800941C0020801C0020054A537F591E917708
:1004C8000449303381F838300123D377002070474E
:1004D800801C002000000020084B094A5B789377B5
:1004E800591C51770749313381F83830064B1B685E
:1004F800C3F3C00382F8203000207047D0460020A4
:10050800801C002000000020802900200B4910B525
:100518004B6ADA6813461C79102C0CD19B1A9A1076
:10052800074B53430278013B023A93FBF2F3013342
:1005380081F82C3010BD1433EDE700BF801C00207B
:10054800CDCCCCCC70B5C46805462379102B05D129
:10055800AB6853B10020BDE870401847042B02D1A6
:10056800E068FFF7EFFF1434EFE770BD10B5002324
:10057800C25C3AB9034420241A1A914205DD03F8F3
:10058800014BF9E701339942F2D10023435410BDDE
:100598000B4B1A6B82420FDA93F8362022B1022AEB
:1005A8000CBF0120022070479B6B1B6933B1984236
:1005B800B4BF012002207047002070470120704717
:1005C800801C0020054B38B1DA6CD8630132DA643C
:1005D800052283F8502070470422FAE7801C002087
:1005E8000D4BB3F85420196E0132A3F854209A6DBC
:1005F80001329A65B3F85C20013292B28A42A3F8BC
:100608005C2007D10022A3F85C20B3F864200132F3
:10061800A3F86420704700BF801C002042884B88E4
:100628009A4203D38CBF0120002070474FF0FF305F
:100638007047F0B5164C04F11807034602463E46CB
:10064800254603CDBD42106051602C4602F10802D8
:10065800F6D128680E4D106003F11C022C4603CC1D
:10066800B44210605160254602F10802F6D12068B4
:10067800074C10603833224603CAB24218605960EA
:10068800144603F10803F6D110681860F0BD00BFE6
:10069800AC9203081222002108B538F0F3FB0122BE
:1006A80042704274044A0F21418011689288C0F850
:1006B8000A10C28108BD00BFC8920308064B19681A
:1006C80041B1986864224243B2FBF1F29A80002259
:1006D8001A609A60704700BF0000001003788B42D0
:1006E80083BF034B03EB4101B1F86600002070475C
:1006F800801C0020034B187810B100221A700120CA
:10070800704700BF8C7B0020F0B5274D00221346B0
:100718002C4641F2210781182944082691F87E10B9
:1007280083EA012313F4004F4FEA430106F1FF3631
:1007380018BF794016F0FF068BB2F3D10132192A9F
:10074800E9D100F1190200F11A012244214492F87A
:100758007E5091F87E2002EB052292B29A420CD18B
:10076800124B1D783346124E01304FF4AF67DAB2A0
:10077800AA4203D30F4B01221A70F0BD00EB4202CC
:10078800D1B262180131214492F87EC091F87E20DE
:1007980002EB0C2292B27A43121302F5487226F841
:1007A80013200133E3E700BF801C0020907B00206A
:1007B800E61C00208C7B002007299DBF034B03EB20
:1007C8008101B1F8A0000020704700BF801C002004
:1007D800174A92F8C03030B543B3002382F8C030CE
:1007E80092F8C130A82B21D192F8D430F3B99FEDFB
:1007F800116ADFED116A02F1C105A032E818C47868
:10080800017901EB042107EE901AB8EEE77AC7EEFA
:10081800067A77EEE67AFCEEE77A17EE901A42F857
:1008280013100233102BE9D1012030BD0020FCE762
:10083800801C0020CDCCCC400080BB43034B03EB95
:100848004101B1F8D600C008704700BF801C0020E5
:100858001D4B93F8F620F0B519460AB90020F0BDF3
:1008680093F8F740B3F8F86003EB4405002095F8D7
:10087800FD7095F8FE2083F8F60042EA07229642BA
:10088800ECD193F8FB30012B03D0812BE7D1032067
:1008980000E01846102C84BF102381F8F7300B4B6A
:1008A80091F8F7400022A3F12705D1B28C4203F159
:1008B8000203D4D913F8026C13F8011C41EA06218B
:1008C80025F812100132F0E7801C00207D1D002061
:1008D80003788B420CD9074B03EB8101064BD1F807
:1008E80020011B7803B1400800F5777080B270478B
:1008F80000207047801C0020067C0020334B93F8B2
:100908005001F0B5002840D0002283F8502193F818
:10091800512193F852012E4900EB02202D4A097803
:1009280014684FF4FA72B4FBF2F4D3F8642180B27D
:1009380062BBA3F86801C3F86441274A1578274ABF
:1009480012681678264A17780320441E1A1992F856
:1009580051212A4102F00F02B24212D20B2A10D8BA
:1009680009B191420DD01C4403EB820294F851C1A5
:100978001C180CEA070C94F8514104EB0C24C2F83B
:10098800204102301128E0D10120F0BD9442D4D09A
:10099800A21A012ACDD10029CBD0124DB3F8682173
:1009A8002F788D00821A6FF013061D443FB1D202D2
:1009B80092FBF6F202F50062C5F82021B9E792022F
:1009C80092FBF6F202F58062F6E700BF801C002079
:1009D800077C0020447A0020047C0020007C002052
:1009E800057C0020067C0020836A33F8110000EBA8
:1009F8008000C01000F55C7080B27047836A487848
:100A08000A7800F0070042EA00221A808A784878BB
:100A180002F03F02520142EAD0025A80CA7888782E
:100A2800920042EA9012087900F0010042EA80221E
:100A38009A804A79087902F00F02D20142EA5002FC
:100A4800DA808A79487902F07F02120142EA1012AC
:100A58001A81CA798879520042EAD012087A00F0DD
:100A6800030042EA40225A814A7A087A02F01F02B9
:100A7800920142EA90029A818A7A487AD20042EA3E
:100A88005012087BDA81CA7A00F0070042EA002295
:100A98001A824A7B087B02F03F02520142EAD002E6
:100AA8005A828A7B487B920042EA9012C87B00F007
:100AB800010042EA80229A820A7CC87B02F00F0277
:100AC800D20142EA5002DA824A7C087C02F07F02B4
:100AD800120142EA10121A838A7C487C520042EAC8
:100AE800D012C87C00F0030042EA40225A830A7DF3
:100AF800C87C02F01F02920142EA90029A834A7D62
:100B0800087DD20042EA5012DA838A7DD1074CBFB1
:100B180040F21471AD21198491074CBF40F2147151
:100B2800AD2112F0080F598414BF0320012070472B
:100B380010B5C46AA27E02F0FF032AB1A11CFFF718
:100B48005DFF0023A37610BD1846FCE7054B53F85C
:100B5800210040F267638002B0FBF3F000F27130CD
:100B680080B27047347B0020002070470020704717
:100B78004FF47A724FF4FA63028043808280C38014
:100B8800028143818281C381704730B50C4B93F851
:100B98006A1193F86B218A420FD0002203F5B670D0
:100BA80003F5C67535F8124020F812400132102AB4
:100BB800F8D183F86B11012030BD0020FCE700BF9D
:100BC800801C0020024B03EB4101B1F86C01704717
:100BD800801C00200F291BD8DFE801F0080808084E
:100BE80008080808080808081A1A1A160A4B1944A7
:100BF80091F8AE314FF47A705843FF2390FBF3F02D
:100C080000F57A7080B27047034B93F8AD31F1E785
:100C180040F2DC50704700BF801C0020044B93F862
:100C2800BC0118B1002283F8BC210120704700BF25
:100C3800801C0020024B03EB4101B1F8BE01704754
:100C4800801C002003788B4283BF034B03EB4101D8
:100C5800B1F8E20100207047801C002070B5214ADD
:100C680092F80232022B3BD1002092F8055201463D
:100C780002F20326C3B29D4220D869BBB2F8033200
:100C88005BBA9BB243F601618B4203D043F6036122
:100C98008B420ED1144C0023A4F12105E018C6792B
:100CA800817901EB0621C1F3CC0159530233202B82
:100CB800F4D1002382F80232012070BD835D4B40DD
:100CC80083EA0313DBB2090ADC0041EA032184EA60
:100CD800131359400130CDE7002082F80202ECE7F7
:100CE8000020EAE7801C0020831E0020024B03EB53
:100CF8008101B1F82C027047801C0020034B4FF093
:100D0800FF32DA61024B0020D860704700000020F3
:100D1800801C0020044B0246D3F8640210B18021E5
:100D28002CF0BFBD704700BF801C002010B508F034
:100D38009BF8074C4368637008F096F88368A370C3
:100D480008F092F803692370FFF724FA002010BD19
:100D58000000002010B50F4C6078A17808F0AEF8BC
:100D68002078431E032B01D808F05EF80A4A617800
:100D7800A378537003EBC1031170093B074920782E
:100D880031F81330907093800FF0ACFD4FF0FF30C6
:100D980010BD00BF000000203C29002034BE03081D
:100DA8000D2970B5044638D91D4938F08FF81D4B08
:100DB8001D6815B90125284670BD284618F081FF21
:100DC8000528F7D1284618F075FF05460028F1D008
:100DD8002A2320262370667008F046F8124B4268D2
:100DE800D35CA37008F040F8104B826803EB8203D1
:100DF800D3F844331B78E370267108F035F80C49B2
:100E0800C268601D2DF06EFD08F02EF80949426990
:100E180004F109002DF066FDCDE70025CBE700BF02
:100E28003CF20308D82900204AF203088C8F0308F3
:100E38004EF2030852F203080E2970B504463ED953
:100E4800204938F043F8204B1D6815B90126304673
:100E580070BD284618F035FF0428F7D1284618F049
:100E680029FF06460028F1D02022184D62702A2357
:100E7800237017486978415CA170A878154951F822
:100E880020100978E1702271EA88601D7AB1124950
:100E98002DF028FDAB8804F1090063B12A890F49B8
:100EA8009A4214BF2A2220222DF01CFDCFE70C49BC
:100EB8002DF018FDEEE70B492DF014FDC7E70026CD
:100EC800C5E700BF57F20308D8290020FA280020F8
:100ED80048CA030850CA03084EF2030866F203081A
:100EE80061F2030860F2030810B5044B044C1A8839
:100EF800044920462DF0F6FC204610BD702B00203A
:100F0800E81E00204EF2030810B5054B05495A8922
:100F180003F26D2420462DF0E5FC204610BD00BFED
:100F2800801C00204EF2030838B5124C124D61792E
:100F3800207908F01BFCE378104A013B32F81330A3
:100F48000F4A13800F4A92889A421EBF0E4B022204
:100F58001A7007F0D6FF20796179E3786970AB7071
:100F6800287008F0EFFBA8800FF0BCFC4FF0FF30B2
:100F780038BD00BF000000203C29002054BE0308F3
:100F8800E62A0020FA280020E82A002008B5074BA6
:100F9800197919B901221A71002008BD4B1E59424E
:100FA8005941492007F0ECFFF6E700BF801C0020FC
:100FB80008B5044B188940F4004008F0B7F9002040
:100FC80008BD00BF801C002070B5354B86B01A786C
:100FD8008DF80C205A788DF80D2000269A78CDF8D7
:100FE8000E608DF80E209A88ADF810201A7ACDF888
:100FF800126003AD8DF8142095E807006C4603C411
:101008002280284A1278022A1C462ED1264B1878AC
:10101800264B8DF8000019788DF8011008F092FB26
:10102800234BADF8040093F87232E3B9052008F0B9
:101038002BF9204B0A221E788DF802606946284653
:1010480037F0F8FE58B19DF8003023709DF8013054
:101058006370BDF80430A670A3800FF043FC4FF016
:10106800FF3006B070BD0620E1E7134B1B7863B96B
:101078000D4B18780D4B8DF8000019788DF801107C
:1010880008F060FBADF80400D3E7304608F0FCF840
:101098000A4B8DF800601B88ADF80430C9E700BF23
:1010A8003C290020682B00206A2B00206B2B002095
:1010B800801C00206E2B0020722B0020702B00203B
:1010C80008B50B4B93F90030012B0A4B04D10022D1
:1010D80083F87222002008BD93F8720208B9012231
:1010E800F6E7012818BF022008F0CEF8F2E700BFA3
:1010F80020010020801C002070B5124C124B94F97E
:1011080000401A78012C05460E4605D1012A01D067
:1011180001221A70002070BD012A03D1002008F0B6
:10112800B3F8F7E7022AF3D1084B002483F8724298
:10113800FFF7C6FF064B314628461C70FFF720F91B
:10114800E8E700BF20010020682B0020801C002059
:10115800722B002008B5074B93F90020064B12B9F3
:101168001A70002008BD1A780AB90122F8E7FFF7BB
:10117800ADF8F6E7200100206A2B002008B5074BE0
:1011880093F90020064B12B91A70002008BD1A788E
:101198000AB90122F8E7FFF799F8F6E720010020DD
:1011A8006B2B002070B5114B1C6A9969104B5D7C44
:1011B8001A7C592606FB014142EA45129E7C0D4DD8
:1011C8001C4625F811201EB142F4006225F81120B2
:1011D800D4F874320BB92CF068FA074B1B6803F586
:1011E800FA73C4F87432002070BD00BF00000020FC
:1011F800801C0020247D0020447A002010B5074C74
:10120800D4F874220AB92CF050FA054B1B6803F580
:10121800FA63C4F87432002010BD00BF801C00209F
:10122800447A002008B528B103784FF480303BB1E8
:101238002CF068FD044BB3F87A0200F0010008BDF9
:101248002CF058FDF6E700BF801C002008B528B137
:1012580003784FF400203BB12CF054FD044BD3F835
:101268007802C0F3C04008BD2CF044FDF6E700BF8B
:10127800801C002008B5064BD87C064B00F13002D4
:101288000138C0B283F835200EF096FE002008BD64
:10129800801C00200000002008B5034B987F0EF04A
:1012A80057FE002008BD00BF801C0020F0B41B4A78
:1012B80092F92C40566A214491FBF4F304FB131174
:1012C800047A82F82810CBB2A51EF1686B43142665
:1012D80006FB03130021C2F87C3282F880120E4606
:1012E80093F804C0BCF1100FCFB201F1010111D184
:1012F8000EB182F8807292F88032013C9C42D8BFCD
:1013080082F8805292F88032013B82F88032F0BC39
:101318002CF0E8B914330126E2E700BF801C002056
:1013280038B5174B5A6A526805461C46CAB994F82C
:101338008102A8B10138C0B284F8810204EBC00070
:1013480000F5217003C80F4B83E8030005F108007E
:10135800FFF7DCF8284694F92810FFF7A7FF0020CC
:1013680038BD93F92900D3F87C3200EB800003EBF9
:10137800800090470028DADA4FF0FF30F0E700BF2E
:10138800801C0020A41C002070B505460E4639B309
:101398001E4B596AB14225D093F88142611C83F8EB
:1013A800811203F1240103C903EBC40404F5217479
:1013B80084E8030000215E6283F8291033683BB19A
:1013C80010469847013003D12846BDE87040A7E78A
:1013D80005F10800FFF79AF800212846FFF766FF95
:1013E800002070BD10F8082F93F92940023A94FBA9
:1013F800F2F102FB114283F82920FFF787F8297AD6
:10140800023994FBF1F149B2E7E700BF801C0020E4
:10141800284A92F8D81238B5D2F8D452144641BBAB
:1014280015B9C2F8DC5238BD234BDA6B002AB8BFB5
:10143800D963DB6B04EB8303D3F8E032C4F8DC3206
:10144800002BF0D001231D4A84F8D8321C4B63626C
:1014580000232385136843F400131360D4F8DC02D7
:101468002CF030F9616AD4F8DC020022BDE838407B
:101478008AE75DB11048C16B013191FBF5F205FBBC
:101488001213C36304EB8303D3F8E052D4F8DC02ED
:10149800A842C8D0037A94F829109A1E94F82830E4
:1014A80002FB031384F829302CF0FFF8C4F8DC524F
:1014B800D4E700BF801C002000000020482900203D
:1014C800F49203082DE9F04F674D2DED028BD5F806
:1014D800D43293B0002BCDE902012C463CDB05F554
:1014E8003C76D6E900234CF2503017184FF0000133
:1014F80043EB0108DDE90223434508BFBA422BD379
:1015080095F8F872C6E9002337BB95F8D8320693E8
:101518003BBB564BDA88A2F2E342B2F5F97F16D804
:10152800B3F9041040F2E142914210DCB3F9022011
:1015380040F2D6639A420ADD4D4B1B68580706D421
:10154800FFF766FF4B4B4FF4FA72A3F840204A4B63
:101558001A68454BC3F8002313B0BDEC028BBDE8F5
:10156800F08F4FF47A73029AB2FBF3F30593D5F830
:10157800743263B1059A9A4209D9D5F8DC02C5F8E4
:1015880074722CF09FF8D5F8DC022CF0ABF8D4F884
:1015980074327BB1344C059AD4F8FC3203F5FA73F3
:1015A8009A42D4D9D4F8DC022CF015F8059BC4F87B
:1015B800FC32CCE72D4A2F4BD688D4F80003B3F978
:1015C8004010B2F90250A6F2E346B6F5F97F164686
:1015D80054D8B2F904C040F2E14294454EDC40F2DE
:1015E800D66295424FDD224A126812F0040F0CBFF2
:1015F800062601265A6C002902F101025A6460DCB1
:10160800721E9B6CD4F8DC82174D07934FF0000ACA
:10161800D2B253460892079A524500F31581033E09
:10162800012E19B251D81348426C142A4DDDA2F18B
:10163800140193FBF1F3322B19B246DCD5F80433CD
:101648000BB9C5F80423632A846CD5F8043300F376
:101658005A83D21A052392FBF3F222449A42C8BF56
:101668001A46826431E000BF801C0020E846002052
:101678004829002000000020447A002040F2D66269
:10168800954200F3D78040F2E14C654540F3D480A1
:10169800B6F90020624540F3D18040F2D665AA42EF
:1016A80000F3CE80B288A2F2E242B2F5FA7F00F2ED
:1016B800C9800122C3E9112200239942C4F80433E6
:1016C80003DD059B0144C91A09B2BC4BA3F84010BD
:1016D800BB4BD3F874229846002A7FF45BAFD3F84B
:1016E8007C32002B3FF456AFD8F8DC6298F88022A1
:1016F800337A9B1A022293FBF2F3013BDBB201938C
:10170800D8F82833029A03F5C333A0339A4284BF2A
:101718001346C8F82833336888BF069FDB6A30460B
:101728009847327B1FFA80FB002A00F0F4822022BF
:101738000321A44837F0A6FB00233373D8F87C4272
:1017480098F82930002059B201EB810204EB82029B
:1017580001331279012ADBB240F2FB8208B188F822
:10176800291096F90D20002A0BDB8A4220D0019B14
:101778001A44D2B2944B012130462BF07DFFABEBDB
:10178800000BBBF11D0F7FF605AF98F9292096F9DC
:101798000D30934210D0019B1A44D2B28B4B0121D9
:1017A80030462BF069FF98F829307373ABEB000BC8
:1017B800BBF11D0F7FF6EEAED8F87C42002514343D
:1017C800337AEAB2023B9A4204DA14F8101C102960
:1017D80040F0C182D8F87C7200230493337A9DF8D4
:1017E8001050023B9D42BFF6D5AE3A79102A3FF41D
:1017F800D1AE08EB050393F80833DB0740F1058306
:10180800019B03EB05095FFA89F90F2A00F231847D
:10181800DFE812F01C041C042F042F04CB02CB02B7
:1018280003031E0358034B0363036D03C2027803CB
:10183800B00332030126DDE60226DBE60326D9E6FD
:101848000426D7E60526D5E66B6A1BB9FA230AF102
:10185800010AE0E6062E04D1FFF7DAFD4FF4FA7329
:10186800F5E7052E03D14046FFF75AFDF6E7022EAD
:101878003FD195F9293095F88022934230DA013327
:1018880085F82930089B012BE0D995F929B0D5F8BE
:101898007C420BEB8B0204EB82042379023B0D2B79
:1018A800D4D801A252F823F06F1800087F19000855
:1018B800511900086319000895190008D91900087A
:1018C8005F1A0008031A0008971A0008CD1A0008C2
:1018D80055180008031A0008FF1A0008351A0008EE
:1018E80095F82810013149B24046FFF7DFFC002384
:1018F800C6E7012EC6D195F82910D5F87C224B1ED3
:101908005BB203EB830002EB800085F82930007995
:10191800012804D8002BC4BF023985F8291095F98D
:101928002930591C06D003EB830302EB83031B7990
:10193800012B8BD895F82810013949B24046FFF79A
:10194800B5FC95F880329BE7042E7FF47FAF2246E2
:10195800E1684046FFF718FD80E7A368002B3FF4D5
:1019680075AF042E7FF472AFE168404698470130A6
:101978007FF474AF77E7A368002B3FF467AF042EBA
:101988007FF464AFE1684046984767E7E368002B57
:101998003FF45CAF042E0CBF012200221A70AB4446
:1019A8009BF8083343F001038BF80833A368002B36
:1019B8003FF44CAF21464046984747E700000020D7
:1019C800801C0020881F0020B117040882F2030839
:1019D800E368002B3FF43AAF341F624212A8624119
:1019E80000F8202D984795F929302B4493F80823BF
:1019F80042F0010283F8082328E7237CD8063FF544
:101A080025AFE268002A3FF421AF1168042E0B7855
:101A180006D150799842C2D9927913440B70BEE727
:101A280010799842BBD292799B1AF7E7E1680A6865
:101A3800042E13780BD10979994201D90133137017
:101A4800A368002BCFD0E16840469847CBE7002B2E
:101A5800F6D0013BF3E7237CD9063FF5F7AEE36800
:101A6800002B3FF4F3AE19680A78042E50B207D160
:101A780093F905C0844592DD9B791A440A708EE774
:101A880093F904C084458ADA9B79D21AF6E7237C55
:101A9800DA063FF5DBAEE268002A3FF4D7AE1168FC
:101AA800042E0B8807D1D08898427FF678AF128928
:101AB80013440B8073E790889842BFF470AF128983
:101AC8009B1AF6E7237CDB063FF5C0AEE268002AE6
:101AD8003FF4BCAE1168042EB1F9003005D1B2F95B
:101AE800060098427FF75BAFE1E7B2F9040098423D
:101AF800BFF655AFE3E7E268002A3FF4A7AE1388C4
:101B08000992B3F5B37F3DBFCC490A2000FB031906
:101B18004FF00009484631F0B1FD0190484631F0D8
:101B280095FD099A04909278B2B107EE902AB8EE22
:101B3800E78A042E484618BFB1EE488A31F0F6FD10
:101B480099F8053003F00F03052B3FF628AFDFE8BF
:101B580003F0062D52799CBDB7EE008AE9E70378B9
:101B680007EE903A9DF80430F8EEE77A07EE103A5F
:101B78009DF8103037EE888AB8EEC77A07EE903AAB
:101B8800B4EE478AF1EE10FAF8EEE77AC8BFB0EE85
:101B9800487AF4EE477AF1EE10FAC8BFF0EE477AC9
:101BA800FCEEE77A17EE903A0370F8E690F9003009
:101BB80007EE903A9DF90430F8EEE77A07EE103A0E
:101BC8009DF9103037EE888AB8EEC77A07EE903A5A
:101BD800B4EE478AF1EE10FAF8EEE77AC8BFB0EE35
:101BE800487AF4EE477AF1EE10FAC8BFF0EE477A79
:101BF800FDEEE77AD6E7038807EE903ABDF80430A1
:101C0800F8EEE77A07EE103ABDF8103037EE888A1A
:101C1800B8EEC77A07EE903AB4EE478AF1EE10FABA
:101C2800F8EEE77AC8BFB0EE487AF4EE477AF1EEFC
:101C380010FAC8BFF0EE477AFCEEE77A17EE903A52
:101C48000380ACE6B0F9003007EE903AF8EEE77A98
:101C5800BDF9103037EE888ADDED017AB8EEE77A03
:101C680007EE903AB4EE478AF1EE10FAF8EEE77A0A
:101C7800C8BFB0EE487AF4EE477AF1EE10FAC8BF62
:101C8800F0EE477AFDEEE77AD8E7D0ED007AF8EE85
:101C9800677A37EE888ADDED017AB8EE677ADDED8E
:101CA800047AB4EE478AF1EE10FAF8EE677AC8BF04
:101CB800B0EE487AF4EE477AF1EE10FAC8BFF0EECB
:101CC800477AFCEEE77AC0ED007A68E6D0ED007A54
:101CD8009DED047A38EE278ADDED017AF8EEE77A91
:101CE800B8EE477AB4EE678AF1EE10FAC8BFF0EEA4
:101CF800487AB4EE677AF1EE10FAC8BFB0EE677AA8
:101D080080ED007A4BE62244D21A322A7FF7A9AC3A
:101D180032238364D9E4002F3FF410AD98F8803261
:101D2800D8F87C1203EB830301EB830399423FF657
:101D380005AD087C440748BF58FA82F401F1140144
:101D480042BF94F8080340F0010084F80803013208
:101D5800ECE70120F7E408EB020797F80833980747
:101D680017D5019B1A4401298CBF0321022154F87D
:101D7800143CD2B230462BF07FFC97F80833ABEB1B
:101D8800000B23F00203BBF11D0F87F808337FF621
:101D980001AC0135143413E5FB68002B00F06981B0
:101DA800717A08394A46C9B241E096F809A0042A6E
:101DB800AAF1080A2DD1B86868B33A7C12F0080471
:101DC8000DD080475FFA8AF1034602904A463046B2
:101DD8002BF052FC0446029833F0C0F98244184BA9
:101DE8004A465FFA8AF130462BF046FC2044154BF0
:101DF8001D4495F8083323F0010385F80833ABEB4D
:101E0800000BBBF11D0F7FF6C5AB049B14370133E4
:101E1800E3E40024E3E70446E1E7F8680028EED0AD
:101E2800717A03780839C9B22BB1074B4A46304654
:101E38002BF022FCDBE7054BF8E700BF74CA030868
:101E480083F20308801C00206DF2030871F2030876
:101E5800FC68002C00F00F8196F809A00020A0472C
:101E6800AAF1080A864A874B5FFA8AFA002808BF4F
:101E7800134651464A46DAE7FB681A689B681278A7
:101E880053F82240204633F069F9202802462146BB
:101E980038BF20220AA834F08DFC20210AA8FEF7BA
:101EA80065FB717A08390AAB7CE7F8680028A6D088
:101EB8003B7CDC0658BF006800780AA926F0F6F8D3
:101EC8000521EBE7F868002899D03B7CD90658BF74
:101ED80000680AA990F90000F0E7F86800288ED099
:101EE8003B7CDA0658BF00680AA90088E6E7F8686C
:101EF800002884D03B7CDB0658BF00680AA9B0F9EB
:101F08000000DBE7F86800283FF479AF0368008930
:101F18001B78584300F5C3300AA9A03026F0C6F84C
:101F28009DF82A309DF829208DF829302E238DF828
:101F38002A309DF82D308DF82820302B01D02E2BFB
:101F48000AD19DF82C10002330298DF82D3001D0AE
:101F58002E2901D18DF82C30302A08BF20234FF0CC
:101F680005010AA808BF8DF82830FEF7FFFA717A34
:101F7800093998E7F868002300283FF440AF8DF846
:101F880028300488B4F5B37F77D23F4A0A2303FB8D
:101F98000424204631F0CAFB637903F00F0301469D
:101FA800062B07D8DFE803F00425282A2D2F350053
:101FB800037800939DF82820CAB93B7C03F0F0030E
:101FC800102B01BF009ADFF8D0A00A235A43637987
:101FD8000CBF0092924613F0C0021FD0402A28D0AE
:101FE800BAF1000F03D051460AA836F053FF082172
:101FF80054E790F90030DCE70388DAE7B0F90030FD
:10200800D7E70368D5E70AA891ED000A2CF034F861
:10201800D0E720220AA836F073FFCBE703F00F03BE
:10202800042B009A0CBF194919490AA82CF05AFC2C
:10203800D6E70099204631F0F1FA16491F22002808
:1020480018BF01460AA836F05BFFC9E7012AFC68F9
:1020580005D120210AA8A04748B90020C7E6002CCE
:10206800FBD0386833F07AF82346C11C9AE60AACEC
:10207800F7E70020C3E62046C1E65B79FFDE00BF34
:1020880071F203086DF2030874CA03081108040802
:10209800E71404087AF2030875F20308F8B54B1E32
:1020A800012B05460F46154E09D81548FEF74AFA82
:1020B800736A5B680BB1002098470EF013FC00248C
:1020C800284686F8D8422BF0F0FA022F74620ED117
:1020D80028462BF007FB0B4B0322052128462BF043
:1020E800CBFA28462BF074FA204624F055FB064A12
:1020F800136823F4001313602046F8BD801C0020E9
:10210800F492030885F203084829002010B5034615
:10211800064C38B1206428F039FB4FF6FF73A4F859
:102128004830022384F8503010BD00BF801C0020C6
:102138000A4B93F836201AB1022A04D000207047BF
:10214800986B2BF04CB8064A41F29C03D358002BED
:1021580001DD27F0D7BD0120704700BF801C00209B
:1021680028A9002013B5184B93F83620022A0146F7
:1021780025D1DB6B8DF8070093F91A005A68441CC7
:10218800C2F308020CD040F2FF14A24208D002EBBE
:1021980040220E4811545A6801325A6002B010BDEC
:1021A8001A7E12F0060FF9D093F82820002AF5D1EC
:1021B80001220DF10701184628F024FBEEE7986B81
:1021C8002BF01CF8EAE700BF801C002040A9002083
:1021D8002DE9F04100F110020746002552F8043DB0
:1021E800AD00EDB22BB103F108010F2925D845F058
:1021F80001059742F2D12846FFF7B4FF002634467E
:10220800B04605F00303022B27D0032B38D0012B4F
:1022180007D157F82600B8F1000F16D10001C4B253
:1022280098460136042E4FEA9505EAD1B8F1000F19
:102238003CD02046BDE8F04194E78033FF2B94BFA3
:1022480045F0020545F00305D3E700F00F002043F1
:10225800FFF788FF4FF00008E3E757F82600B8F1CA
:10226800000F03D1C0B2FFF77DFFDAE7C0F3031018
:102278002043FFF777FF57F826402401E4B2D0E760
:1022880057F82600B8F1000F06D1C0F30720FFF772
:1022980069FF17F82600E6E7C0F303302043FFF78D
:1022A80061FF57F82600C0F30710E2E7BDE8F081A8
:1022B800F8B5061F054600F108073146002351F816
:1022C800042F02F120003F283AD802F108000F2815
:1022D8001BD80232032A02D9002B08BF01238F42E0
:1022E800EDD1012B286812D0022B1ED06B6800019B
:1022F8009B0000F0300003F00C030343A86800F0D3
:1023080003001843BDE8F8402CE70223E7E700F094
:102318000F0040F04000FFF725FFD5E9013000F03D
:102328000F0040EA0310C0B2ECE700F03F0040F0B5
:102338008000FFF717FF2879FFF714FF287AE1E7F5
:1023480005F10C02002452F8043D03F18001FF2935
:102358004FEA840406D903F50041B1F5803F1AD24B
:1023680044F001049542EED164F03F00C0B2FFF79B
:10237800F9FE56F8040F04F00303022BC0B218D07C
:10238800032B1DD0012B10D0FFF7ECFEB7424FEA0C
:10239800A404EED1F8BD03F50003B3F1807F34BF88
:1023A80044F0020444F00304DCE7FFF7DBFE707836
:1023B800EAE7FFF7D7FE7078FFF7D4FEB078E3E7D7
:1023C800FFF7D0FE7078FFF7CDFEB078FFF7CAFEB2
:1023D800F078D9E710B504467F2CE0B202D8BDE802
:1023E8001040BFE640F08000FFF7BCFEE409F3E7C9
:1023F800C31783EA4000EDE738B5044600EB410512
:1024080034F9020BFFF7F4FFAC42F9D138BD38B507
:10241800044600EB810554F8040BFFF7E9FFAC42D2
:10242800F9D138BD0E4B2DE9F04103F54B75E0CDE0
:1024380088460024054406440744444501D1BDE8C4
:10244800F08137F9142035F9140036F914301344A3
:10245800022293FBF2F3C01AFFF7CAFF0134ECE73C
:10246800801C002008467DE638B5244D04464720E8
:10247800FFF778FED5F838335B0205D5D5F8303349
:102488001868201AFFF7A6FF1D4CE079FFF7A2FF96
:10249800207AFFF79FFFD5F83C33E068C01AFFF7B2
:1024A800A7FFD5F840332069C01AFFF7A1FF6423BE
:1024B800606990FBF3F0FFF79BFFB4F92400FFF786
:1024C80089FFB4F92600FFF785FFA08DFFF782FF8B
:1024D800208DFFF77FFF608DFFF77CFF032104F15C
:1024E8001E00FFF789FF237A85F84C33E368C5F8A7
:1024F80044332369C5F8483338BD00BF801C002029
:10250800582C0020F8B5124E96F83630022B0546A6
:10251800374606D00446264616F8011B91B9641BB7
:102528000EE032F01BFE0446F06B037E13F0060F3C
:1025380006D090F828301BB92246294628F062F9BF
:102548002046F8BDB86B2AF059FE3446E3E700BFD1
:10255800801C00200EB477B507AC0646482054F816
:10256800045BFFF7FFFD2020FFF7FCFD3046FFF777
:10257800C9FF3A20FFF7F6FD23462A460949019488
:1025880000202BF0C4FF04460A20FFF7EBFD064AA3
:10259800136B03341B1B136303B0BDE8704003B017
:1025A800704700BF6D240008801C00200FB407B5D9
:1025B80004AB064953F8042B019300202BF0A7FF26
:1025C80003B05DF804EB04B0704700BF6D24000849
:1025D8002DE9F74F514F1546D7F85423002914BF5A
:1025E8004FF006094FF004090132064698468B461B
:1025F80028D1D7F850434C4580F08D80484A02EBEB
:102608008402D2F878230192104632F0A7FD0B30ED
:10261800FDF7BEFF019A824618B1012003B0BDE85C
:10262800F08F032C94BF314659463E48FFF7BEFF52
:102638003A6B87F858A3101AD7F854233863013235
:10264800C7F85423DFF8E0A0DFF8E0B0A8EB0508EE
:10265800D7F854430C9B9C421ADB12D10120FDF79A
:1026680097FF70B93A6B0A20013A3A63FFF77AFD8F
:10267800D7F850230132C7F850234FF0FF32C7F87C
:102688005423D7F8500348452CBF00200120C5E744
:102698000D9B5BB1DDE90D239A1A62430D9B995C92
:1026A80001228A40D7F838130A4224D0D7F8502399
:1026B80004FB08F42E1922BB285932F04FFD411DA6
:1026C8000846FDF765FF0028A7D1386B97F858230F
:1026D800401A3863BAB12C20FFF744FDD7F85023CD
:1026E800AAB92859FFF70EFF96F904104B1C02D01F
:1026F8005846FFF75BFFD7F854230132C7F8542335
:10270800A6E70321DCE7012287F85823E6E7164409
:1027180050463179EDE7002080E700BF801C00209B
:102728008C8F030892F20308E7140408A1F2030847
:102738002DE9F04FA94DAA4BD5F82C43A94F2DED03
:10274800028BA04683B048F8040B009304F1B0064E
:102758004FF0000B05F55A7AA34B53F82B00C8F835
:1027680024005AF82B0048F8040B183303F10C0C1A
:1027780053F82B00009BC8F80800B3EC010A5CF87A
:102788002B00C8F81400009334F03AFA974B26F857
:10279800020B9B89F7EC017A00EE103AB8EEC00AFA
:1027A8004FEA8B0920EE270A34F02AFAB0809048C5
:1027B80009EB00018F48C96BA6F866100168019003
:1027C80011F0100F1ED1DFF8309209EBCB0090ED1D
:1027D800060A34F015FAC8F82C00382000FB0B99CB
:1027E80099ED160A34F00CFA99ED150AC8F8380074
:1027F80034F006FA99ED170AC8F8440034F000FAE4
:10280800C8F850000BF1010BBBF1030FA4D1019BD9
:10281800794E1B6813F0100FB2EE048A00F0BB80EB
:1028280096ED4E0A34F0ECF996ED4D0AC4F88000A6
:1028380034F0E6F996ED4F0AC4F8840034F0E0F974
:1028480096ED500AC4F8880034F0DAF996ED5C0A7F
:10285800C4F88C0080EE080A34F0D2F9C4F890006D
:1028680096ED5B0A80EE080A34F0CAF9C4F89400C1
:1028780096ED5D0A80EE080A34F0C2F9C4F89800B3
:1028880096ED5E0A80EE080A34F0BAF9C4F89C00A6
:102898005A4E5B4804F1A002002336F9131022F8BF
:1028A800021B30F91310D1800133042BF5D1554B9D
:1028B80055481A88A4F8BC205A889B88A4F8BE20DA
:1028C800A4F8C03004F1C402002350F8231042F8E1
:1028D800041B0133082BF8D195F88C134B4804F1ED
:1028E800E40200238B4273DB494B4A481B88A4F857
:1028F8000C31494BDFF838E11B88A4F80E31474BFF
:10290800DFF830C1DB69C4F81031454B454FD3EDD2
:10291800057AD5F8C833C4F82031434B1B88A4F88E
:102928002431B5F8DE33A4F80631404B1B88A4F8EF
:102938002631B5F8E433A4F82831FDEEE77AB5F886
:10294800E633A4F82A31B5F8E833A4F82C31C4EDFD
:10295800457A04F5987104F59E720023861D5EF889
:10296800235041F8045B3CF9135022F8025B30F91C
:102978001350958037F91350558156F82350CD617F
:102988000133032BEBD10023A4F8603103B0BDEC75
:10299800028BBDE8F08F96ED400A80EE080A34F00D
:1029A8002FF9206796ED3F0A80EE080A34F028F9DF
:1029B800606796ED410A80EE080A34F021F9A067B5
:1029C80096ED420A80EE080A34F01AF9E0675FE7EC
:1029D80030F9136022F8026B013383E7801C002072
:1029E80010000010A0010010DC1F0020840100105E
:1029F800087C00208429002008800020E846002068
:102A0800E42900207C010010402B00200E2000202B
:102A18009C4600206A200020982C0020E82C0020EA
:102A2800A02C0020F0300020983C0020C832002064
:102A3800EC430020F84300202DE9F047BF4C94F800
:102A4800FC938CB0CDE90001B9F1000F40F09580FE
:102A58000CB0BDE8F087D4F800042AF0C6FBD4F81F
:102A68000434132B06D85A1C2344C4F8042483F8CE
:102A780008044D46DDE90023C8E90023D4F8000422
:102A88002AF0B9FB0028E6D1D8E90023DDE9006780
:102A9800B61A67EB0307002F08BFB6F57A7FC0F0B8
:102AA800C981D4F8043433B1D4F83434C4F80404F4
:102AB8000133C4F8343494F84434012B00F0D58041
:102AC800C0F0BD80022BC3D1DFF87CC24FF0FF35C8
:102AD800E6464FF4807A4FF00009E0469EF8003051
:102AE800CBB19EF80130B3B1BEF80430DE0712D581
:102AF800DEE90601DDE90067DEE90423361A67EB43
:102B080001079F4208BF964205D39EF802305345FD
:102B1800BCBF4D469A4609F10109B9F1100F0EF1F3
:102B2800680EDBD1681C00F0B9800DF1300945F062
:102B3800400309F8243D0122494600202CF04AFBB5
:102B4800DDE900127E4B8DF80D00C3E90012D4F8C0
:102B58000004022249462AF054FBD4F828340133F1
:102B6800C4F82834682303FB05852B6A01332B62DC
:102B7800DDE90034C5E906346AE7002504F5846810
:102B88007CE7402D26D0602D7FF462AF94F80924AD
:102B9800D11C8B427FF45CAF202A3FF659AF3246F6
:102BA8002644684900202CF015FB96F8083408E004
:102BB800042B7FF44DAF032262492CF00BFB94F8F1
:102BC8000B34834200F08781D4F830340133C4F8E1
:102BD800303480E194F80A8408F1040293427FF4C7
:102BE80037AFB8F1200F3FF633AF32465549264488
:102BF8002CF0F0FA96F808348342E5D16820524D5B
:102C080000FB07F2AE18AA5C002A00F06481B388C2
:102C1800DB0740F1608196F8243053B9B8F1000F12
:102C280007D0304642464949263033F0C3FD86F87E
:102C38002480682303FB075700233B624BE1404B8A
:102C4800DDE90067D3E90023B61A67EB0307404ABA
:102C58000023BB4208BFB242BFF4FAAE0023C4F857
:102C68004034012384F84434F2E6374900236822CB
:102C780002FB03F0405C002800F0B2800133102B07
:102C8800F6D10023DDE90012C4F85034314BC3E912
:102C98000012CDE00133C4F84034D9E64FF4807215
:102CA80000239CF8001079B19CF8011061B19CF8E0
:102CB800251049B1BCF80410890705D59CF8021005
:102CC8009142BCBF1D460A460133102B0CF1680C1B
:102CD800E7D16B1C40D06821694308EB01094631F4
:102CE80099F825208DF80D20414445F060050DF137
:102CF8000E008DF80C5033F05DFD222203A9002050
:102D08002CF068FADDE900120D4B8DF82E00C3E9AE
:102D18000012D4F80004232203A92AF072FAD4F886
:102D280028340133C4F82834D9F820300133C9F8DD
:102D38002030002389F825308AE600BF801C002057
:102D4800B820002088200020908A00208B200020B6
:102D580080841E00C8200020614D6248D5E9002308
:102D6800DDE90067B61A67EB03070021B94208BF1F
:102D7800B042BFF46DAED4F8503468225A4308EB21
:102D8800020118F8022012B38A788DF80D2043F05A
:102D980020030020032203A98DF80C308DF80E00C3
:102DA8002CF018FADDE900238DF80F0045E904231B
:102DB80003A90422D4F800042AF023FAD4F828340A
:102DC8000133C4F82834DDE90023C5E90023D4F829
:102DD800503401330F2BC8BF0023C4F8503437E6F2
:102DE80094F840248DF80D2003A903228DF80C30A7
:102DF8008DF80E002CF0EEF9DDE900123A4B8DF853
:102E08000F00C3E90012D4F80004042203A92AF031
:102E1800F8F9D4F828340133C4F82834D4F8403405
:102E2800FF2B7FF437AF94F84434022B3FF410AEF5
:102E3800022317E7002D3FF40BAED4F80434032B1C
:102E48007FF606AE94F8085405F01F0705F0E00574
:102E5800202D03F1FF363FF4ABAE3FF692AE002DC6
:102E68007FF4F6AD0D2B7FF4F3AD0C221F492CF047
:102E7800B1F994F8143483427FF4A6AEB4F80C3454
:102E88001B4AB4F80E1494F809644FF47A70584346
:102E980068235F43D3194FF0010C9980C117C3E928
:102EA800040194F81014997194F81114D97194F8D4
:102EB8001214197294F8131459720020002102F8A0
:102EC80007C09E709D84C3E906011D62D4F82C34A6
:102ED8006344C4F82C340023C4F80434B8E500BFB4
:102EE800C8200020400D0300B820002088200020C2
:102EF800908A0020F8B505462AF0C6F82D4B2E4CCE
:102F0800D3F858242D4EC3F85804821AB2F5FA5F44
:102F1800C2BF0022227032702278C3F85C141AB93A
:102F2800A12D04BF01213170317829B19918EDB272
:102F3800013281F87E502270214922780878904227
:102F480008D1204A1278052A05D0062A07D000237E
:102F580033702370F8BD0020FDF7D6FBF7E793F830
:102F68007F201E2AF3D1002739460138FAB282425F
:102F780006DB034493F87E309942E8D10320EBE75F
:102F88001A44082592F87E20D2B281EA020C1CF07D
:102F9800010F4FEA520218BF82F08C0205F1FF358B
:102FA80018BFD2B215F0FF05C1F34701EDD10137C3
:102FB8001146DBE7801C00208E7B00208D7B0020E3
:102FC8008F7B0020917B002010B504462AF05CF826
:102FD8000F4BD3F86024C3F86414821A41F2883185
:102FE8008A42C4BF002283F8682493F86824C3F88F
:102FF8006004142A03EB020114BF0132012281F894
:10300800C14014BF83F8682483F8C02010BD00BFF6
:10301800801C002010B504462AF036F8264BD3F859
:103028007024C3F87004821AB2F57A6FC4BF002204
:1030380083F87824214A516093F878244AB9A82C57
:103048002ED183F8F620A3F8F820991881F8FA40D1
:1030580006E0022A02D183F8F740F6E7242AF4D9D9
:1030680093F8F71001320231D2B249008A4283F84C
:10307800782416DAB3F8F800E4B280EA04200822CB
:1030880041F2210110F4004F02F1FF324FEA4000F3
:1030980018BF484012F0FF0280B2F3D1A3F8F8003D
:1030A80010BD01318A4201BF002283F87824012231
:1030B80083F8F620F4E700BF801C0020F0200020F1
:1030C80010B5044629F0E0FF104BD3F88024C3F86C
:1030D8008414821A41F288318A42C4BF002283F8DC
:1030E800882493F88824C3F880040F2A0DD8511C2B
:1030F800C9B21A441029E4B282F851410CBF012226
:10310800002283F8881483F8502110BD801C002009
:1031180038B50C46054629F0B7FF2278A36B022A7A
:10312800C4E90E010CD1C01A2F4BDB8A834207DC9D
:103138002E4B1B78082B04BF2D4B186000232370DF
:10314800237813B1012B08D038BD0F2DFCD10123F2
:1031580084F83430E5762370F6E794F83420531C6D
:10316800DBB22244192B84F83430D576ECD194F8AC
:103178003330142B03D022D80BB1042B23D10223D4
:1031880023700123A27E002ADED1002BDCD0174B4E
:103198001B78082B02BF164B94F832205A6004F1B2
:1031A800330104F11B03621C53F8040B42F8040BAF
:1031B8008B42F9D11B7813700123A376C4E7242B23
:1031C800DDD0342BDAE70B4A02232370B2F88A34B5
:1031D80001339BB2A2F88A34044A1278082A04BF41
:1031E800034A93600023CDE7007B00203C2B00209E
:1031F800402B0020801C00202DE9F048044629F0CF
:1032080043FF174B03F59262D2E9006716F57A7B04
:1032180047F1000C8C4508BF834515463CBF00228A
:1032280083F8982493F898241AB9C5E90001052071
:1032380004E0022AFBD993F89A14881C82420CDA1B
:10324800511CC9B281421A4483F89814B4BF0021B2
:10325800012182F8994483F8DB14BDE8F08800BFA7
:10326800801C00202DE9784B154C29F00DFF2646CF
:10327800002234F8123023B90132102AF9D1002083
:103288001BE0104BD3E90045B0EB040B61EB050CD8
:103298004FF0000944F61F68E14508BFD845EED253
:1032A800C3E900010022A3F55D7336F8121023F874
:1032B80012100132082AF8D10120BDE8788B00BF2E
:1032C8000C1E00206021002038B5044629F0DCFEE1
:1032D8002F4B304DD3F8E824C3F8EC14821AB2F51A
:1032E8007A7FC3F8E80408DD2B49002228202A70D9
:1032F800087083F8022283F8F0242A784AB93D2C12
:1033080019D03E2C16D1012183F802122349C3F8A3
:10331800F414D3F8F4148C540132D2B2062A2A7069
:103328001D4C1DD193F80222012A09D18A78282A36
:1033380006D8227038BD012183F8F0141849E6E751
:1033480093F8F024012A02D18A78092AF1D90022B7
:1033580028212A70217083F8022283F8F024E9E7F3
:1033680021789142E6D193F80222012A04BF022271
:1033780083F8022293F8F024012A04D1022283F868
:10338800F02429F081FE00232B7028232370D1E735
:10339800801C00207C7B00207D7B0020831E002079
:1033A800782100202DE9F04B044629F06DFE2B4BC7
:1033B80003F5A162D2E90067B0EB060B61EB070CDD
:1033C8004FF000094FF4FA78E14508BFD845244E7C
:1033D8002AD2002583F810553570C2E9000193F808
:1033E8001025E1B28AB904291E4801D0202922D12A
:1033F80001700220002483F813054FF6FF7083F84C
:10340800114583F81215A3F81405981880F81615B5
:1034180093F8121501398A420BBF0122013283F851
:10342800362583F8102504E03578002DD5D0013DE8
:103438003570BDE8F08B05786DB9552C0BD1012599
:1034480004701F2083F8115583F81205A3F814257A
:1034580083F81355D9E7A542EBD1D6E7801C0020A5
:10346800857B0020847B002070B50A4C002094F8EE
:103478009B142BF0A2FE94F89A640025023E04F2F5
:103488009944AE4200DC70BD63190135D9782BF040
:1034980094FEF6E7801C002038B5624C94F8DB34C3
:1034A8000BB9002038BD94F89B340025162B84F8FE
:1034B800DB5440F09A80FFF7D7FF94F8B234834288
:1034C800EFD194F89D5494F89E0494F89C2405F048
:1034D8000701182342EA012284F89A3400F03F01D8
:1034E800514B490141EAD5011A6094F89F2459606B
:1034F80094F8A01494F8A154920042EA901201F0B2
:10350800010042EA80229A6094F8A20405F00F02B2
:10351800D20142EA510200F07F01DA60090194F811
:10352800A32441EA151194F8A4541961520005F036
:10353800030142EAD01242EA412294F8A5045A61F2
:1035480094F8A62400F01F018901D20041EA9501F0
:1035580042EA501294F8A85494F8A904DA6194F84D
:10356800A724996105F0070142EA012200F03F0112
:10357800490141EAD5011A6294F8AA24596294F8DB
:10358800AB1494F8AC54920042EA901201F0010096
:1035980042EA80229A6294F8AD0405F00F02D20143
:1035A80042EA510200F07F01090141EA151119634D
:1035B800DA6294F8AE2494F8AF54520042EAD0127A
:1035C80005F0030142EA412294F8B0045A6394F8E2
:1035D800B12400F01F018901D20042EA501241EAE9
:1035E80095019963DA6301205CE7142B7FF459AFE6
:1035F800FFF73AFF94F8A63483427FF452AF94F869
:103608009E240C23642AA8BF642284F89A344FF4B9
:10361800C8635343642293FBF2F3034ABF33136432
:1036280028463FE7801C0020347B002030B5224B21
:1036380093F8FC3385B013B9022005B030BD25F0EE
:103648009FFD0028F8D0012343700378002BF3D0A6
:1036580025F096FD04460028EFD0036A012B38BFF9
:103668000123013B0A2BE7D890F824000028E4D076
:10367800A388DA070BD51028024604F1260128BFD3
:103688001022684633F096F8002384F824309DF819
:103698000030DB070DD5094A6C4604AD234603CB41
:1036A800AB42106051601C4602F10802F6D10120BD
:1036B800C3E70320C1E700BF801C00202C1E0020A8
:1036C80073B502AC002324F8023D0B4D0B4A0646A5
:1036D80082F8373521462A68082006F05BFC2A68FC
:1036E8002146812006F056FCBDF8062029683046A0
:1036F80006F068FC02B070BD247B0020801C00200E
:10370800F8B51E4C054629F0BFFC04F5A763D3E9BC
:103718000067861BB6F5FA6FC4BF002284F84025FF
:1037280094F84025F2B1164A1278092A04D1D3E94F
:103738000023144B801AD860EA6AD4F84405137839
:10374800012B14D918B10178303901290FD9002378
:10375800137094F840352BB10B48FFF7B1FF0023E5
:1037680084F840350023C4F844350120F8BD0133FE
:1037780013700649002206F099FFEAE7801C002032
:103788003C2B0020402B00201C930308C021002064
:1037980050B10138002330F0FF019AB203F1010360
:1037A80003D140EA022080B270474008F3E707B52A
:1037B800130A8DF804308DF80520022301AA2AF097
:1037C800FDF8024B187003B05DF804FB8C1500205F
:1037D80008B52AF066F8014B187008BD8C15002052
:1037E80007B5022301AA29F0BBFF054B18709DF805
:1037F80004009DF8053043EA002003B05DF804FB9F
:103808008C15002007B50DF1070229F07DFF034B49
:1038180018709DF8070003B05DF804FB8C150020B4
:103828002DE9F8430E46502114460746FFF7EAFFF4
:1038380001304000C0B2208046213846FFF7E2FF41
:103848002C4D2378013080B26B434FF47A78A080F6
:1038580003F5FA734FF4FA69B3FBF8F25121B3FB9D
:10386800F9F300FB02333846B3FBF8F3E360FFF7E4
:10387800B7FFC2B2C0F30F2082402378013292B260
:103888006B43E28003F5FA733846B3FBF8F1B3FBF8
:10389800F9F302FB01337021B3FBF8F8A4F81080A8
:1038A800FFF7B0FF01304000C0B260807121384698
:1038B800FFF796FFC3B2C0F30F2083400133F278BD
:1038C8009BB2238112B1E2889B1A2381A3782189B4
:1038D8005D4305F5FA754FF47A724FF4FA60B5FB5B
:1038E800F2F3B5FBF0F501FB0355B5FBF2F5658284
:1038F800BDE8F883002F3A0010B50C460121FFF708
:1039080081FFC0F300132370C0F3C003A370C0F39A
:1039180080036370C0F38013C0F3C010E37020719C
:1039280010BDF8B5134E144C144F41F0010200219C
:103938000546FFF74DFF3168216013212846FFF740
:1039480061FF10F007000BD001220B212846FFF77A
:103958003FFF002228461146FFF73AFF012008E002
:103968003A68002AE9D0336821689BB25B1A9A4208
:10397800E3D2F8BD447A0020283E00202C3E0020E7
:103988002DE9F047824EDFF81C928AB004460027E2
:10399800892100683770FFF735FF40F00102D2B285
:1039A80089212068FFF714FF3A4688212068FFF72D
:1039B8000FFF012280212068FFF70AFF0122FF2163
:1039C8002068FFF705FF3A4639462068FFF700FFF1
:1039D80091212068FFF716FF6E4B187039460122B7
:1039E8002068FFF7F5FE3A46FF212068FFF7F0FE52
:1039F8003A4680212068FFF7EBFE60212068FFF738
:103A080001FF40F01202D2B260212068FFF7E0FE09
:103A1800202244212068FFF7CAFEFF2201212068E6
:103A2800FFF7D6FE2568012280212846FFF7D0FE41
:103A38000122FF212846FFF7CBFE3A4639462846A1
:103A4800FFF7C6FE0622FF212846FFF7C1FE8321A5
:103A58002846FFF7D7FE40F00402D2B28321284659
:103A6800FFF7B6FE0722FF212846FFF7B1FE012225
:103A780081212846FFF7ACFE012280212846FFF766
:103A8800A7FE6B2294212846FFF7A2FE3A4683211F
:103A98002846414FFFF79CFE404B3A681A6098460B
:103AA80083212846FFF7AEFE002800F05583012247
:103AB80028468321FFF78CFE92212846FFF7A2FEB5
:103AC8000022804681212846FFF782FE06222846EA
:103AD800FF21FFF77DFE83212846FFF793FE832110
:103AE80000F0FB022846FFF773FE28460122FF215B
:103AF800FFF76EFE284601220021FFF769FE2846DF
:103B08000022FF21FFF764FE284600228021FFF7EC
:103B18005FFE062303AAB0212068214F29F020FE6A
:103B280001223870FF212068FFF752FE00224F2142
:103B38002068FFF74DFE2C224E212068FFF748FE33
:103B48000022FF212068FFF743FEB422B621206837
:103B5800FFF73EFEC8F3C713002B4FF000050CBF5C
:103B68004FF0000C4FF00C0C2A464FF0010E08F0F5
:103B78007F08E8B20AAB03EBD009844519F81C3C6E
:103B880000F0070110D8904540F0F6820CE000BF25
:103B9800603D0020253E0020447A0020283E002079
:103BA8008C1500202C3E00200EFA01F123EA0103B7
:103BB80009F81C3C0135302DDBD1062303AAB021BE
:103BC800206829F0FBFE01223870FF212068FFF7EA
:103BD800FFFD002211462068FFF7FAFD0022FF21B1
:103BE8002068FFF7F5FD002209212068FFF7F0FDA6
:103BF800002210212068FFF7EBFD00221121206828
:103C0800FFF7E6FD012224212068FFF7E1FDFF22EE
:103C180025212068FFF7DCFD002275212068FFF7C9
:103C2800D7FD0122FF212068FFF7D2FD2C224E216B
:103C38002068FFF7CDFD002248212068FFF7C8FD66
:103C4800294620222068FFF7C3FD0022FF212068B3
:103C5800FFF7BEFD294609222068FFF7B9FD0022BB
:103C680054212068FFF7B4FD042231212068FFF7B2
:103C7800AFFD032232212068FFF7AAFD83224021ED
:103C88002068FFF7A5FD252246212068FFF7A0FD43
:103C9800002260212068FFF79BFD00222721206871
:103CA800FFF796FD062250212068FFF791FD0022BC
:103CB80051212068FFF78CFD962252212068FFF7DA
:103CC80087FD082256212068FFF782FD2A465721E2
:103CD8002068FFF77DFD002261212068FFF778FD4D
:103CE800002262212068FFF773FD0022642120680A
:103CF800FFF76EFD002265212068FFF769FDA0220D
:103D080066212068FFF764FD0122FF212068FFF784
:103D18005FFD322222212068FFF75AFD1422472135
:103D28002068FFF755FDFF2249212068FFF750FD65
:103D380000224A212068FFF74BFD0022FF2120685E
:103D4800FFF746FD0A227A212068FFF741FD00228D
:103D58007B212068FFF73CFD212278212068FFF7AE
:103D680037FD0122FF212068FFF732FD342223218D
:103D78002068FFF72DFD002242212068FFF728FD6B
:103D8800FF2244212068FFF723FD262245212068D1
:103D9800FFF71EFD052246212068FFF719FD402286
:103DA80011462068FFF714FD06220E212068FFF750
:103DB8000FFD1A2220212068FFF70AFD4022432127
:103DC8002068FFF705FD0022FF212068FFF700FDAE
:103DD800032234212068FFF7FBFC442235212068A8
:103DE800FFF7F6FC0122FF212068FFF7F1FC04220F
:103DF80031212068FFF7ECFC09224B212068FFF7EE
:103E0800E7FC05224C212068FFF7E2FC04224D2143
:103E18002068FFF7DDFC0022FF212068FFF7D8FCAF
:103E2800002244212068FFF7D3FC20224521206886
:103E3800FFF7CEFC082247212068FFF7C9FC28229B
:103E480048212068FFF7C4FC002267212068FFF79B
:103E5800BFFC042270212068FFF7BAFC01227121FF
:103E68002068FFF7B5FCFE2272212068FFF7B0FC3E
:103E7800002276212068FFF7ABFC0022772120681A
:103E8800FFF7A6FC0122FF212068FFF7A1FC012211
:103E98000D212068FFF79CFC0022FF212068FFF716
:103EA80097FC012280212068FFF792FCF82201216B
:103EB8002068FFF78DFC0122FF212068FFF788FCAE
:103EC80001228E212068FFF783FC0122002120684F
:103ED800FFF77EFC0022FF212068FFF779FC002213
:103EE80080212068FFF774FC04220A212068FFF76C
:103EF8006FFC256884212846FFF784FC842100F0A4
:103F0800EF022846FFF764FC01220B212068FFF727
:103F18005FFC256801A92846FFF7EEFC05AA01A960
:103F28002846FFF77DFC9DF80430002B00F02A811D
:103F3800089B03F684539DF80620002A00F025818B
:103F4800089A02F2B22203EB42039DF8072022B13D
:103F5800BDF8242002F5257213449DF8082022B1EB
:103F6800BDF8262002F2262213448D4F20683B60BC
:103F78000121E822FFF72CFC396844F61F639942B7
:103F880002D9206815F0A4FE012211462068FFF727
:103F98001FFC40212068FFF7C4FC002800F0E980DE
:103FA800012120680222FFF713FC00212068FFF797
:103FB800B8FC002800F0DD80E82201212068DFF845
:103FC800E881FFF705FC202244212068FFF7EFFB7A
:103FD800256801A92846FFF78FFC05AA01A92846EC
:103FE800FFF71EFC502257212846FFF7F1FB082255
:103FF80056212846FFF7ECFB082250212846FFF7F8
:10400800E7FBBDF824004FF47A7A48F20E690AFB00
:104018000090B0FBF8F080B2FFF7BAFB51210246DE
:104028002846FFF7C4FB089A0AFB0292B2FBF8F293
:10403800B2F5807F9ABF02F1FF32D2B2FF22462149
:104048002846FFF7C5FB396844F61F63994202D931
:10405800284615F03DFE01212846FFF7D3FB022232
:10406800804601212846FFF7B3FB00212846FFF7C9
:1040780058FC424601212846FFF7AAFB246801A9FB
:104088002046FFF739FC05AA01A92046FFF7C8FB1F
:10409800482211462046FFF79BFB0822472120466D
:1040A800FFF796FB032232212046FFF791FB0722F8
:1040B80030212046FFF78CFB0122FF212046FFF725
:1040C80087FB202230212046FFF782FB0022FF21B8
:1040D8002046FFF77DFB062220467021FFF778FB7C
:1040E800BDF8260046F644034FF47A7202FB00300E
:1040F8004DF28803B0FBF3F09DF8073080B21BB196
:10410800BDF81A30184480B2FFF742FB712102460D
:104118002046FFF74CFB396844F61F63994202D9E1
:10412800204615F0D5FD01212046FFF76BFB022242
:10413800054601212046FFF74BFB00212046FFF7EB
:10414800F0FB2A4601212046FFF742FB154B64226B
:104158001A60012333700CE0D9F8001000293FF4ED
:104168009FAC3B68D8F800209BB29B1A9942BFF4D9
:1041780097AC0AB0BDE8F0870B41DB0744BF0132BA
:10418800D2B217E540F63633D5E69DF80520002A69
:104198003FF4DBAE089A02F525721344D5E600BF5A
:1041A800944600202C3E00201C0C010008B5503815
:1041B800C0B2FCF7AFFD0020FCF7ACFD1020BDE855
:1041C8000840FCF7A7BD503910B50446C8B2FCF743
:1041D800A1FD04EB4400400004EB440400F00E0091
:1041E800FCF798FDC4F3C3001030BDE81040FCF79D
:1041F80091BD044B0246D3F8640210B1402129F066
:1042080050BB7047801C002038B500222123232191
:1042180001202CF057FA3D4BC3F8640210B9002571
:10422800284638BDAE20FCF775FD05460028F6D0B7
:10423800D420FCF76FFD8020FCF76CFDA820FCF76C
:1042480069FD3F20FCF766FDD320FCF763FD0020E5
:10425800FCF760FD4020FCF75DFD8D20FCF75AFD62
:104268001420FCF757FDA120FCF754FDC820FCF7EB
:1042780051FDDA20FCF74EFD1220FCF74BFD8120A2
:10428800FCF748FDCF20FCF745FDD920FCF742FD9F
:10429800F120FCF73FFDDB20FCF73CFD4020FCF75C
:1042A80039FDA420FCF736FDA620FCF733FDAF202E
:1042B800FCF730FDA620FCF72DFDAE20FCF72AFD0B
:1042C8002020FCF727FD0020FCF724FDB020FCF798
:1042D80021FD4020FCF71EFD0020FCF71BFD1020EF
:1042E800FCF718FD4FF48064013C0020A4B2FFF7EE
:1042F80080FF002CF8D18120FCF70CFDC820FCF7CA
:1043080009FDAF20FCF706FD8AE700BF801C0020EE
:1043180038B500EB8000084BA0F1A1051D449C3B7B
:104328001C1815F8010FFFF764FFA542F9D100200A
:10433800BDE838405DE700BF2393030810B5441E6D
:1043480014F8010F00B910BDFFF7E2FFF8E710B548
:10435800B020FCF7DFFC4020FCF7DCFC0020FCF779
:10436800D9FC1020FCF7D6FC4FF48064013C0020F7
:10437800A4B2FFF73EFF002CF8D110BD10B5104ACB
:1043880092F90000C8B10F4B597901B95871598990
:1043980011B9D18801B159810B490C8814B9948895
:1043A80004B10C80022809D1D278012012F0080249
:1043B80014BF83F8720283F8722210BD0120FCE753
:1043C80020010020801C0020702B00200D2970B5D2
:1043D800044675D93C4934F079FDFFF7CFFF05460F
:1043E80000286FD0394B3A4A1B783A4ED35C237079
:1043F800394B1B786BBB394996F90130082293FB7E
:10440800F2F28A5CA2705A4202F0070203F0070334
:1044180058BF53423133E370F37803F00A020A2A93
:1044280004F1050019D1F2882D492AF05BFA2023FE
:104438006372F3789A0727D55B074CBF49234F234C
:10444800E3725223502223730023A2726373284617
:1044580070BD5523A3704623DDE7D90701D5B2887F
:10446800E2E796F90130594201F007014FF00802DE
:1044780093FBF2F203F0070358BF4B4203EBC2036E
:10448800184A32F81320CFE796F9002096F902303F
:10449800022A04F10A00144A05D152F833201349BC
:1044A8002AF020FAD3E7272B06DC182B06DC0F2B83
:1044B800D4BF00230123F0E70323EEE70223ECE750
:1044C8000025C4E70125C2E73CF20308682B002059
:1044D800A6F2030820010020692B0020AAF2030895
:1044E8004EF203085EBE030878BD030853F20308C2
:1044F800074BD3F8D422042A1FBF511CC3F8D41287
:1045080003EB8203C3F8E00214BF012000207047C8
:10451800801C002070B5284E96F84835093B012BC1
:1045280005460C460BD84520FDF71CFE2846FDF72E
:1045380019FE0E2D31D003D8A5B30D2D0ED070BDA8
:10454800282D2FD0FF2D2FD01E2DF8D12068FDF754
:1045580041FF6068BDE87040FDF73CBF6378207894
:10456800A3B180F08000FDF7FDFDA468E0B2FDF77F
:10457800F9FDC4F30720FDF7F5FDC4F30740FDF787
:10458800F1FD200EBDE87040FDF7ECBDFDF7EAFD3A
:104598006068BDE87040FDF72BBF2068FDF71AFF83
:1045A800A068D7E72068D5E796F849150348FDF7CE
:1045B800FDFF0020E6E700BF801C0020B0F20308E2
:1045C800084B1B681B060BD4074B186810F08000BB
:1045D80007D0064B9B68052B34BF0020022070478C
:1045E80001207047142C002080290020083E00205C
:1045F8000B4B93F84F3553B10A4B0B4A1B68126BA0
:104608009B1AB3F5FA7F34BF012003207047074B8C
:1046180093F85130002B14BF02200020704700BFD0
:10462800801C0020447A0020A02C002000000020DC
:104638000B4A92F84E3553B10A4BD2F8D0231B6877
:104648009B1AB3F5FA7F34BF012003207047064B4D
:1046580093F85030002B14BF02200020704700BF91
:10466800801C0020447A002000000020064B93F8AC
:104678004C353BB9054B93F84E30002B14BF022044
:104688000020704701207047801C00200000002097
:10469800064B93F84B353BB9054B93F84D30002B3F
:1046A80014BF02200020704701207047801C0020A2
:1046B80000000020054BDA6B32B91A6C22B9586C2D
:1046C800003018BF0120704701207047087C002087
:1046D80008B5094B93F84D3533B1FFF7EBFF0028C8
:1046E80014BF0120032008BD044B93F84F30002B62
:1046F80014BF02200020F6E7801C002000000020E4
:1047080038B5304BD3F8543503602F4B1B68037111
:104718002E4B93F8283043712D4B1B7883712D4B0A
:104728001B78C3710446FFF7B3FF0546FFF7D0FFB8
:104738000146FFF79BFF090141EA850141F00101AC
:1047480041EA8011FFF73CFF41EA0021FFF770FFC3
:1047580041EA8021FFF74CFF1F4B204A1B88A381A9
:104768001F4B1B88E3811F4B41EA003019781E4B11
:10477800A06033F91130217607EE103AB8EEC77A07
:10478800F2EE046AC7EE267AFDEEE77A17EE903A63
:10479800D2ED007AFDEEE77A03EB830317EE900A79
:1047A800D2ED017A2082FDEEE77A5B0017EE900ADF
:1047B800D2ED027A6082FDEEE77AE38217EE902A64
:1047C800A28238BD801C0020842900204C290020AA
:1047D8001544002090460020A2460020784700207B
:1047E8009E460020962C0020902C002030B589B0E1
:1047F800002840D02C48B0F85430B3F5805F3AD345
:1048080000F25C50FFF77CFF274C5320FDF7AAFC11
:10481800D4F85C05FDF7DEFD94F86005FDF7DAFDD8
:1048280094F86135019394F86235029301A894F8DD
:1048380063350393FDF73CFDD4F86405FDF7CAFD25
:10484800B4F86805FDF7C6FDB4F86A05FDF7C2FDC2
:10485800032104F26C50FDF7CFFDB4F97205FDF7A2
:10486800C7FD94F87405FDF7B5FD0023A4F854308E
:10487800012009B030BD01A8FFF742FF19220B49FA
:1048880001A834F0D7FA0028F3D0084B01AC07ADE3
:10489800224603CAAA4218605960144603F1080365
:1048A800F6D112781A70AFE7801C0020DC210020B6
:1048B8002DE9F04FBB4C8046B4F85C0089B08946BE
:1048C800002840F0778194F83430012B05D194F812
:1048D8003500236EC71A78427841FFF787FF4946AB
:1048E8004046FDF725FFD4F82C5349202E46FDF706
:1048F80039FCA06DFDF76EFD56F8280BFDF76AFD33
:1049080030460321FDF783FD0321281DFDF77FFDB8
:10491800032105F11000FDF77AFDD4F838331E03A2
:1049280002D5E869FDF764FDD4F83833D80202D51A
:10493800286AFDF75DFDD4F83833990202D5686A14
:10494800FDF756FDD4F83833DA0311D5032105F104
:104958008000FDF75CFDD5F88C00FDF749FD05F1F9
:1049680090000321FDF753FDD5F89C00FDF740FDAD
:10497800D4F838339B0320D5032105F13400FDF723
:1049880046FD032105F14000FDF741FD032105F136
:104998004C00FDF73CFD032105F15800FDF737FDFC
:1049A800032105F16400FDF732FD05F170000321D4
:1049B800FDF72DFDE86FFDF71BFD042105F1A000B3
:1049C800794EFDF719FD032105F1A800FDF714FD47
:1049D8003388B5F9AE00C01AFDF7FCFCD4F83833BB
:1049E8009F0408D5B4F87605B5F80C31C01AC0F3A1
:1049F8000D00FDF7EFFCD4F83833580403D5B5F9AA
:104A08000E01FDF7F5FCD4F83833590504D5032118
:104A180005F58C70FDF7F0FCD4F838331A0503D58A
:104A2800D5F81001FDF7E4FCD4F83833DB0403D5DE
:104A3800D5F81401FDF7DCFCD4F838331F0403D58E
:104A4800D5F82001FDF7D4FCD4F83833580303D542
:104A5800B5F82401FDF7BEFC032105F1B000FDF710
:104A6800CBFC032105F1B600FDF7C6FC032105F1D7
:104A7800BC00FDF7C1FCD4F83833190204D508216D
:104A880005F1C400FDF7C3FC3388B5F9E400C01A8A
:104A9800FDF7A0FC94F88C8305F1E6070126B045E4
:104AA80077DCD4F838339A0505D5B5F90601A0F2B4
:104AB800DC50FDF79DFCB5F92601FDF799FCB5F82A
:104AC8002801FDF795FCB5F82A01FDF791FCB5F82A
:104AD8002C01FDF78DFCD5F83001FDF789FCD5F8E0
:104AE8003401FDF785FCD5F83801FDF781FCB5F9EF
:104AF8003C01FDF77DFCB5F93E01FDF779FCB5F900
:104B08004001FDF775FCB5F94201FDF771FCB5F9F7
:104B18004401FDF76DFCB5F94601FDF769FCB5F9EF
:104B28004801FDF765FCB5F94A01FDF761FCB5F9E7
:104B38004C01FDF75DFCD5F85001FDF759FCD5F89F
:104B48005401FDF755FCD5F85801FDF751FCB5F9AE
:104B58006001FDF74DFCD4F82C231449C4F8302328
:104B6800C4F83423124B521A9210534301330322D0
:104B780093FBF2F202EB42029B1A4FF4B27202FB71
:104B88000313C4F82C33012384F8A43909B0BDE811
:104B9800F08F37F9020BB5F9E430C01AFDF728FC9D
:104BA80001367CE7801C00205A2A0020F8210020CA
:104BB800E9473FFAD4F8A839D4F8AC299A4207D083
:104BC80008A9002041F8203DC4F8AC39FFF7A2FC41
:104BD800AB490422A1F25C4034F02CF960B1D4F85E
:104BE800B039019308A9D4F8543541F8203D1E2066
:104BF800C4F8B039FFF78EFC94F83410B4F85C3080
:104C080094F835000B44013BB3FBF0F200FB123380
:104C1800994240F219820120FFF7E8FD49464046D3
:104C2800FDF786FD5020D4F82C53D4F83063FDF7F7
:104C380099FAD4F83423D4F82C3310681B68D4F8C4
:104C4800302303441068A3EB4000FDF7D1FB06F1C5
:104C5800280205F12801684623F0BCFD03216846B7
:104C6800FDF7D5FB321D291D684623F0B3FD03214E
:104C78006846FDF7CCFB06F1100205F11001684605
:104C880023F0A8FD6846FDF713FB13274FF0010A30
:104C9800D4F838230AFA07F3134209D0BB00EA18FC
:104CA800334452F8300C53F8303CC01AFDF7A0FBDF
:104CB8000137162FECD1D4F83833DB031DD506F1B4
:104CC800800205F18001684623F084FD03216846CF
:104CD800FDF79DFBD5F88C00FDF78AFB06F19002E5
:104CE80005F19001684623F075FD68460321FDF73C
:104CF8008EFBD5F89C00FDF77BFBD4F838339F0377
:104D080030D506F1340205F13401684623F062FD1E
:104D180003216846FDF77BFB4027F219E91968462D
:104D280023F058FD0C3703216846FDF770FB642F0C
:104D3800F3D106F1640205F16401684623F04AFDE7
:104D480003216846FDF763FB06F1700205F1700167
:104D5800684623F03FFD68460321FDF758FBE86FDE
:104D6800FDF746FB05F1A00006F1A001002330F98C
:104D7800022B31F9027BD21B4DF823200133042B7F
:104D8800F5D16846FDF724FA05F1A80006F1A80157
:104D9800002330F9022B31F9027BD21B4DF8232076
:104DA8000133042BF5D16846FDF712FAD4F838130D
:104DB80011F4005706D0B5F80C31B6F80C219B1A3F
:104DC8000093012748040AD508AB03EB8702B6F91C
:104DD8000E01B5F90E311B1A42F8203C01374A057D
:104DE80013D50DEB870305F58C7006F58C7C043B19
:104DF80005F58F7E30F9022B3CF902AB8645A2EB14
:104E08000A0243F8042FF5D103370B050AD508AB7E
:104E180003EB8700D6F81021D5F810319B1A40F81B
:104E2800203C0137C8040AD508AB03EB8700D6F845
:104E38001421D5F814319B1A40F8203C01370A0494
:104E48000AD508AB03EB8700D6F82021D5F8203126
:104E58009B1A40F8203C01374B0313D508AB03EBF2
:104E68008702B6F82411B5F824315B1A42F8203CC1
:104E78000137012F40F016810098FDF7B9FA03E0D9
:104E880030260020002FF4D10321B020FDF7CAFA04
:104E98000321B620FDF7C6FABC200321FDF7C2FAAC
:104EA800D4F83833180203D50821C420FDF7BAFA1C
:104EB80094F88C13E420FDF7B5FAD4F83833990543
:104EC80006D5B5F90601B6F90631C01AFDF790FA0C
:104ED800B6F92631B5F92601C01AFDF789FAB6F8F0
:104EE8002831B5F82801C01AFDF782FAB6F82A3138
:104EF800B5F82A01C01AFDF77BFAB5F82C01B6F807
:104F08002C31C01AFDF774FA05F5987706F5987AEA
:104F180005F59E7B57F8040B5AF8043BC01AFDF7B9
:104F280067FABB45F6D100274FF0020AD4F83033B0
:104F3800D4F83413D4F82C2307F19C0C4FEA4C0C0A
:104F480063446144B3F90430B1F904006244034492
:104F5800B2F9040093FBFAF30137C01AFDF748FAD7
:104F6800032FE3D100274FF0020AD4F83033D4F8E6
:104F78003413D4F82C2307F1A00C4FEA4C0C6344EB
:104F88006144B3F90230B1F9020062440344B2F952
:104F9800020093FBFAF30137C01AFDF729FA032F31
:104FA800E3D100274FF0020A07F1A401D4F8342313
:104FB800D4F8303332F9110033F91130D4F82C23F6
:104FC800034432F9110093FBFAF30137C01AFDF7D5
:104FD8000FFA032FE8D1494F06F5A87B4FF0000AD6
:104FE8000AF15401D7F82C335BF8042B53F821004D
:104FF8000AF1010A801AFDF7FBF9BAF1030FEFD1A4
:10500800B6F96031B5F96001C01AFDF7F1F9D7F8C2
:105018002C233B49D7F83033C7F83433C7F830234B
:10502800384B521A92105343013393FBFAFA0AEBA6
:105038004A0AA3EB0A034FF4B27202FB0313C7F840
:105048002C33012387F8A4392F4B1B681A067FF5E8
:105058009DAD2E4DD4F83C332A689A420ED16A6829
:10506800D4F840339A4209D1B4F85C30226EB3EBDD
:10507800520F31D1B4F864305B062DD14820FDF7CA
:1050880071F82868FDF7B4F96868FDF7B1F92B687D
:10509800C4F83C336B68C4F8403340464946FDF7D2
:1050A800E3F973E57A1E00205DF822304000C0B2B3
:1050B8000BB140F0010012F1FF32F5D2FDF752F8C2
:1050C8004FF0000A5DF82A0008B1FDF791F90AF1DE
:1050D800010ABA45F6DBD7E60D4B94F84C23197A4A
:1050E8009142DAD1D968D4F844239142D5D11A69CA
:1050F800D4F848339A42D0D148E500BF801C00203C
:10510800F8210020E9473FFA80290020343E00209A
:10511800582C002070B5FFF7BBFA0646FFF7A6FA31
:105128000546FFF7D5FA0446FFF782FA0146FFF76E
:105138005FFA023EF6B20246FFF742FA012E16D98E
:10514800023DEDB2012D12D9023CE4B2012C0ED978
:105158000239C9B201290AD9023AD2B2012A06D9BA
:105168000238C0B2012894BF0020012070BD002081
:10517800FCE7D1ED017AD2ED046AD1ED005A92ED47
:10518800017A91ED026A92ED025A67EEA66AE5EE9F
:10519800876A92ED077AE6EE076A92ED057A27EEBE
:1051A800877AA5EE857A92ED085AA6EE057A92EDF1
:1051B800035A67EE857A92ED005AE5EE257AD2ED2C
:1051C800065AC0ED016AE5EE867A80ED027AC0EDF6
:1051D800007A7047023A30B58B68D1E90045062A53
:1051E80005D8DFE802F0080C1013181B1E00046035
:1051F8004560836030BD056064424460F9E76442FD
:1052080004606D42F4E76D420560F6E764420460AD
:1052180045605B42EDE705604460FAE704606D4273
:10522800F6E76D4205606442F6E71FB5164B93F842
:10523800533004462BBBD0ED007A144AF8EEE77AD7
:1052480001A9CDED017AD0ED017AF8EEE77ACDED3E
:10525800027AD0ED027AF8EEE77A0846CDED037AC5
:10526800FFF787FF9DED010A31F0CAFC9DED020AA8
:10527800206031F0C5FC9DED030A606031F0C0FC90
:10528800A06004B010BD00BF00000020342600203C
:105298001FB51D4B1D48B3F90010B3F90220B3F92F
:1052A800043031B92AB923B9012380F8533004B046
:1052B80010BD07EE901AF8EEE77AB2EE046A87EEB0
:1052C800867A002480F8534001A91148DFED116A5D
:1052D80067EE267ACDED017A07EE902AF8EEE77AA6
:1052E80087EE867A67EE267ACDED027A07EE903A57
:1052F800F8EEE77A87EE867A67EE267ACDED037ABE
:1053080029F026FED3E700BF8A46002000000020CF
:105318003426002035FA8E3C10B5264CB4F90430FA
:1053280007EE903AF8EEE77AB2EE047A2DED048BA8
:1053380087EE879ADFED207A29EE279A08EE100A81
:10534800B0EE490A08EE901A29F098FDF0EE409A5E
:10535800B0EE490A29F0F4FDF8EEC87AB8EEE86A2A
:1053680027EE807AB4F90030A9EEC67A67EEA97AFA
:10537800F0EE476A07EE103AB8EEC77AE6EE007A22
:10538800BDEC048B36EE877ABDEEC77A17EE103A7D
:105398002380B4F9023007EE103AB8EEC77A77EEF8
:1053A800277AFDEEE77A17EE903A6380BDE8104061
:1053B8006EE700BF8A46002035FA8E3C054B186818
:1053C80010F4006004D0044B9879003018BF012015
:1053D800704700BF80290020182C0020034B1B7A3F
:1053E800012B0CBF024B034B18887047182C002068
:1053F8009E4600209C46002008B5174B1B78032BBF
:1054080027D0164B1B78B3B1FFF7D8FF98B1144BD0
:105418001A68D3687BB152696AB112490968642075
:1054280048439B1AB0FBF3F06428A8BF642020EA25
:10543800E070C0B208BDFFF7D1FF0B4BB3F8D82915
:10544800B3F8DA39811A642048439B1A90FBF3F0C9
:10545800EAE70020EEE700BF9B3C0020A0460020C2
:10546800983D00209C3D0020801C002008B5054B7D
:105478001A782AB1FFF7B2FF90FBF2F080B208BDAC
:105488001046FCE74047002010B50C4B0C4A5978F1
:1054980092F9543099420FD00A4B0B4C82F85410B1
:1054A80003201870094B0120187009480023A0F840
:1054B800DA392380A0F8D83910BD00BFD0460020C3
:1054C800000000209B3C0020A03D00204047002019
:1054D800801C002010B5084CA07F0AF039FDFFF7AA
:1054E800D3FF94F8203008201BB128F00BFC0020D3
:1054F80010BD28F0FFFBFAE7801C00202DE9F843D7
:105508002A4CA26992B12A4DB5F8DE1971B1294821
:1055180029F0DEFDA269B5F8DE19274829F0D8FD83
:10552800A269B5F8DE19254829F0D2FDA1699FEDD9
:10553800247A244B244F254E07EE901AF8EE677A0A
:1055480003F1240267EE877A1546002018605F6031
:10555800C3ED027A0C33AB4210605660C2ED027A9A
:1055680002F10C02F2D11A4D1A4AC5F8B820D9B185
:105578000F4F97F8EC29BAB1174AC5F8B82005F1CA
:10558800BC0800264FF01C0905F5887509FB068044
:1055980045F8260097F8ED3997F8EC29A169013606
:1055A80029F09CFD032EF1D1BDE8F8838401001099
:1055B800801C00201C00001038000010540000104F
:1055C800BD378635700000103661023D83F9A23D73
:1055D800000000105FC8020819C802082DE9F04F42
:1055E8008F4B904C9048D3F80C80904F89B038225C
:1055F800002133F047FC94F8DD3987F84D30012B52
:1056080001D0072B51D18A4B8A490DE05A79082AD3
:1056180009D11A7A3AB91A681D791079854202D1E6
:105628001068834203D00C338B42EFD300227E4BA9
:105638001A60002A39D0118B46F66002914234D1A3
:105648007D4A5A607D4A9A6004225A7507250026C9
:10565800CDE9006633462A4631460A2027F01EFE69
:10566800A5B184F84B5502206F4D2EF0A7F94FF4E1
:105678008073AB8128466B689847C5F818806E63BD
:10568800FFF73CFF94F8DC3903B16B7594F8EE89A9
:1056980087F84E8008F1FF33032B00F2BE80DFE865
:1056A80013F006000600E70076010025CFE7002288
:1056B80014230E2110462BF005F8614E8146306008
:1056C800002800F0A78005254FF0000A0A208DF871
:1056D80008A027F03AFD02AAD021484628F014F87D
:1056E800002800F091809DF80830552B40F08C8000
:1056F800544D30680323AB8302AA1623AA2128F04D
:105708002FF89DF808209DF8093043EA02232B80E2
:105718009DF80A209DF80B3043EA02236B809DF820
:105728000C209DF80D3043EA0223AB809DF80E2033
:105738009DF80F3043EA0223EB809DF810209DF876
:10574800113043EA02232B819DF812209DF8133073
:1057580043EA02236B819DF814209DF8153043EA33
:105768000223AB819DF816209DF8173043EA0223E7
:10577800EB819DF818209DF8193043EA02232B820B
:105788009DF81A209DF81B3043EA02236B829DF88E
:105798001C209DF81D3043EA0223AB822A4BB360DC
:1057A8002A4BF3602A4B73602A4B33612A4B73618F
:1057B8002A4BB36102260023CDE90033324619464D
:1057C8000B2027F06BFD002E40F0278104202EF0DF
:1057D800EDF894F8F05987F851509DB1022D40F238
:1057E8002281032D0ED11E4B42F210729A801D4A5F
:1057F8009A601D4ADA601D4A1A61D4F8043A002BEF
:1058080040F0678100253BE1013D7FF45FAF3068E0
:105818002AF04BFFB8F1010F2AD00026CBE700BFD2
:1058280000000010801C00208401001000000020EF
:10583800FC320408C8330408E57002086F730008D6
:10584800E82C00201C72002051760208517B0208C7
:105858007017786935760208117B0208057002080E
:10586800A02C0020E5C50208E9C5020805DC0208ED
:1058780000221423102110462AF024FF994D824655
:10588800286000287FD04FF005094FF0000B0A2050
:105898008DF808B027F059FC02AAA021504627F03D
:1058A80033FF0646002868D09DF80830FF2B64D0E7
:1058B80002212868DFF87CA228F0D0F801221E21F6
:1058C800286827F0EEFF052027F03FFC4FF0A009DD
:1058D8004FF0000B022302AA49462868ADF808B029
:1058E80009F1020927F03CFF9DF808209DF80930CE
:1058F8005FFA89F943EA0223B9F1B00F2AF8023FA7
:10590800E8D17948C289002302F00F0C02F47F42E3
:10591800C2819E464FEA6E0130F81110002918BF67
:1059280000261EF0010F1ABFC9B24B4083EA1123AB
:10593800082113F4004F18BF83F4C05301394FEA0C
:105948004303F6D10EF1010EBEF1100FE2D142EA87
:105958000C02C281A6B9C3F303339C4510D1634B33
:105968006B60634BAB60634BEB60634B2B61634BCA
:105978006B61634BAB6103261DE7B9F1010986D161
:1059880028682AF092FEB8F1010F7FF446AF002292
:1059980014230F2110462AF095FE524D2860002846
:1059A8003FF43BAF022128F059F8D5F800800526CE
:1059B8004FF0000964208DF8089027F0C6FB02AA72
:1059C800D021404627F0A0FE08B39DF80830582B98
:1059D8001DD118234B4A2868882127F0C1FE0C22C4
:1059E800F521286827F05DFF3122F421286827F087
:1059F80058FF454BEB60454BAB60454B6B60454BE7
:105A08002B61454B6B61454BAB610426D3E6013EE8
:105A1800D0D128682AF049FECDE6042084F84C65E8
:105A28002DF0CCFFD5E620230022194601202AF0CC
:105A380049FE3B4E3060002849D0042302AAFF21CA
:105A480027F08EFE042302AAFF21306827F088FE83
:105A580000283CD0336800221A765A769A76DA768D
:105A68001A775A779A77DA7783F8202042F21073F8
:105A7800B3802C4BB3602C4BF3602C4B3361022565
:105A88000023CDE900332A461946142027F006FCE6
:105A98000DBB20202DF08AFF254D94F80B6A87F85E
:105AA8004F60002385F834302B732B74731E0A2B38
:105AB80000F2B080DFE813F04000B000DA00FC002C
:105AC8002501EB00500140007B01AE007B01012D58
